:100000000C94EB000C9413010C9413010C94130149
:100010000C9413010C9413010C9413010C94130110
:100020000C9413010C9413010C9498190C94151A48
:100030000C9413010C9413010C9413010C941301F0
:100040000C9413010C94B01D0C9413010C94130127
:100050000C9413010C9413010C9413010C94471C81
:100060000C9413010C9413010C9413010C941301C0
:100070000C9413010C9413010C9413010C941301B0
:100080000C9413010C9413010C9413010C941301A0
:100090000C94911C0C9413010C9413010C941301F7
:1000A0000C9413010C9413010C941301005EBCE238
:1000B000613FDD83C29C7E20A3FD1F41009D23BEC6
:1000C00046DB65F88C11AF32CA57E97400000000B6
:1000D000240027002A002D00300000000000250029
:1000E00028002B002E003100000000002300260015
:1000F00029002C002F000404040404030405020258
:1001000002020403020202020606060606060404B0
:100110000202020404040802011040804010204042
:1001200080408008020401804020100201108010ED
:10013000204040200000000200090F0000030401DD
:10014000000C0000000000000000000000000000A3
:10015000000000080B000202020000090400000178
:1001600002020000052400100105240101010424FD
:10017000020605240600010705810310004009045A
:100180000100020A00000007050202400000070506
:1001900083024000000403090412010002EF02017F
:1001A00040412336800001010203014172647569F8
:1001B0006E6F204C4C430041726475696E6F204C29
:1001C000656F6E6172646F00070605040100080A1E
:1001D0000B0C0D096C1E11241FBECFEFDAE0DEBF41
:1001E000CDBF12E0A0E0B1E0EEE2F1E502C0059083
:1001F0000D92A831B107D9F727E0A8E1B2E001C01C
:100200001D92A630B207E1F710E0CBEED0E004C0BB
:100210002197FE010E946A27CA3ED107C9F70E94B2
:10022000BD1E0C9495280C9400002FB7F89483E021
:100230008093E9009091E800892F807295FF04C0B7
:100240009091F20080E4891B2FBF089583E0809392
:10025000E9008091F200882319F08AE38093E80096
:100260000895FC0180910C06882311F13FB7F894A2
:1002700082E08093E9002091F200822F90E018162E
:10028000190614F481E090E0882339F0289844E6B8
:1002900040930B064091F1004083222339F02091D6
:1002A000F200211103C02BE62093E8003FBF089520
:1002B0008FEF9FEF08958091030681110DC082E0BA
:1002C0008093FF0584E0809300061092020610924E
:1002D000010681E0809303068FEF95E00895409139
:1002E0001B0350911C032091190330911A034217EC
:1002F0005307B4F49091E8009570E1F39091E80011
:1003000092FD19C08093F10080911B0390911C0312
:1003100001968F739927892B19F48EEF8093E8004B
:1003200080911B0390911C03019690931C03809372
:100330001B0381E0089580E00895EF92FF920F93F0
:100340001F93CF93DF93F82E192FE62E042F81E011
:10035000860F880F0E946F0183E00E946F01CF2DEE
:10036000D12FEC0EFD2EF11CCE15DF05B9F007FFE5
:1003700013C0FE0184910E946F01182F80E00E943B
:100380006F01812321968111EFCFDF91CF911F91D2
:100390000F91FF90EF9008958881EDCF81E0F5CF28
:1003A000DF92EF92FF920F931F93CF93DF93D82E9C
:1003B0008A01EB017B01E40EF51ECE15DF0559F035
:1003C000D7FE12C0FE0184910E946F012196811117
:1003D000F4CF0FEF1FEFC801DF91CF911F910F9165
:1003E000FF90EF90DF9008958881EECF0F931F93D9
:1003F000CF93DF931F92CDB7DEB782E0898342E4CB
:1004000050E063E571E080E80E94D0010E945B014A
:10041000DC0112960D911C910115110589F0D8018E
:10042000ED91FC910280F381E02DBE016F5F7F4F63
:10043000C801099597FD04C0F80100851185ECCF2E
:1004400089810F90DF91CF911F910F910895615095
:1004500030F02091F100FC0120830196F8CF28981C
:1004600084E680930B060895CF93DF931F92CDB758
:10047000DEB76983DC01ED91FC910280F381E02D10
:1004800041E050E0BE016F5F7F4F09950F90DF9113
:10049000CF9108950C9426010E94150190E00895D3
:1004A000CF93DF931F92CDB7DEB7FC01848595858E
:1004B00097FD08C02FEF3FEF358724870F90DF911E
:1004C000CF910895CE0101960E943101019719F450
:1004D000898190E0F3CF8FEF9FEFF0CF0F931F93C1
:1004E000CF93DF931F92CDB7DEB78C01FC018485DB
:1004F000958597FF0BC0CE0101960E9431010197AF
:1005000071F4898190E0F80195878487F8018485EA
:1005100095850F90DF91CF911F910F9108958FEFE7
:100520009FEFF1CFFC018485958597FD0BC09FB7A8
:10053000F89482E08093E9008091F2009FBF90E000
:10054000019608959FB7F89482E08093E900809126
:10055000F2009FBF90E0089581508F3008F047C0AF
:10056000E82FF0E0EA54FD4F0C946A27D302D7023B
:10057000C502CB02CF02F702F702F702DA02E0026D
:10058000E402E802EE02F702F202809180008F7727
:10059000809380000895809180008F7DF9CF8091B5
:1005A0008000877FF5CF84B58F7784BD089584B5AB
:1005B0008F7DFBCF809190008F778093900008957E
:1005C000809190008F7DF9CF80919000877FF5CF4B
:1005D0008091C0008F778093C00008958091C00003
:1005E0008F7DF9CF8091C200877F8093C2000895EC
:1005F000CF93DF93282F30E0F901EC5CFE4F84911C
:10060000F901EB5EFE4FD491F901EA50FF4FC4911E
:10061000CC23A1F081110E94AC02EC2FF0E0EE0F90
:10062000FF1FE851FF4FA591B491EC91ED2381E0BC
:1006300090E009F480E0DF91CF91089580E090E0B0
:10064000FACF1F93CF93DF93282F30E0F901EC5CB2
:10065000FE4F8491F901EB5EFE4FD491F901EA500F
:10066000FF4FC491CC23A9F0162F81110E94AC0238
:10067000EC2FF0E0EE0FFF1FE652FF4FA591B49173
:100680008FB7F894EC91111108C0D095DE23DC935C
:100690008FBFDF91CF911F910895DE2BF8CFCF93BD
:1006A000DF9390E0FC01EB5EFE4F24918A509F4F58
:1006B000FC0184918823C9F090E0880F991FFC0108
:1006C000E453FF4FA591B491FC01E652FF4FC59151
:1006D000D49161110DC09FB7F8948C91209582231D
:1006E0008C938881282328839FBFDF91CF91089521
:1006F000623051F49FB7F8943C91822F8095832308
:100700008C93E8812E2BEFCF8FB7F894EC912E2BA2
:100710002C938FBFEACF3FB7F89480911503909147
:100720001603A0911703B091180326B5A89B05C026
:100730002F3F19F00196A11DB11D3FBFBA2FA92F60
:10074000982F8827BC01CD01620F711D811D911D5D
:1007500042E0660F771F881F991F4A95D1F70895C9
:100760008F929F92AF92BF92CF92DF92EF92FF92C1
:100770006B017C010E948B034B015C01C114D1040D
:10078000E104F104B9F00E948B03681979098A0920
:100790009B09683E73408105910580F321E0C21AF0
:1007A000D108E108F10888EE880E83E0981EA11CAC
:1007B000B11CE4CFFF90EF90DF90CF90BF90AF904F
:1007C0009F908F9008958F929F92AF92BF92CF92F9
:1007D000DF92EF92FF920F931F93CF93DF936C0101
:1007E0007B018A0180910B01882309F45CC0809110
:1007F0000C06882309F457C080911F0380FF05C0B1
:100800008091E00082608093E000E801B12C8AEFE3
:10081000A82E93E0892E2AE3922E209711F4BB2074
:10082000D9F10E94150181110AC0AA94AA20D9F118
:1008300061E070E080E090E00E94B003EECF8C17A2
:100840001D0611F00CF08C2F9FB7F8948092E900F0
:100850002091E80025FD02C09FBFDFCF282F30E0A8
:10086000C21BD30BF701815020F041914093F1005E
:10087000FACFE20EF31EBB2021F09092E800B12CDB
:10088000EBCF8091E80085FDE7CF9092E800BB2494
:10089000B394209709F3F3CF5D9884E680931E0309
:1008A000101611063CF081E090E0F60193838283FC
:1008B00010E000E0C801DF91CF911F910F91FF90F0
:1008C000EF90DF90CF90BF90AF909F908F90089562
:1008D000CF92DF92EF92FF92CF93DF93EC010E94D1
:1008E0008B036B017C0188A599A5AAA5BBA5B701BF
:1008F000A601481B590B6A0B7B0B8CA19DA1AEA1D5
:10090000BFA1481759076A077B0748F18C859D8569
:10091000AE85BF852A812223F1F00196A11DB11D6C
:100920008C879D87AE87BF874C855D856E857F856B
:10093000E881F9810680F781E02DCE010995C8A6EE
:10094000D9A6EAA6FBA681E0DF91CF91FF90EF90B8
:10095000DF90CF9008950197A109B109E1CF80E020
:10096000F3CFCF93DF93FC012381222359F1EC01D4
:1009700061E084810E944F0361E08D810E944F03FA
:100980008B81843011F08830B1F461E08E810E9457
:100990004F0361E08F810E944F038FA58F3F91F03D
:1009A00061E00E944F036EA581E068278FA5DF916B
:1009B000CF910C942103833011F0863071F761E000
:1009C0008E81E9CFDF91CF910895CF93DF93FC0122
:1009D00023812223A9F0EC010190F081E02D048015
:1009E000F581E02D60E009958FA58F3F49F061E02A
:1009F0000E944F036EA58FA5DF91CF910C94210328
:100A0000DF91CF910895DC01ED91FC912481358136
:100A100047705527662777274150510961097109A9
:100A2000473051056105710560F4FA01E65EFA4F41
:100A30000C946A272405260528052A052C052E0571
:100A4000300561E0F901099465E0FCCF64E0FACF7C
:100A500066E0F8CF62E0F6CF6AE0F4CF68E0F2CF6C
:100A600069E0F0CFCF93DF93EC01CB01BA0126E030
:100A700030E040E050E00E941A24623071058105A8
:100A8000910589F16CF46115710581059105D1F02D
:100A90006130710581059105F9F0DF91CF910895DD
:100AA000643071058105910561F124F165307105AE
:100AB0008105910591F7E881F9810480F581E02DA8
:100AC00066E006C0E881F9810480F581E02D64E0EC
:100AD000CE01DF91CF910994E881F9810480F581FD
:100AE000E02D65E0F5CFE881F9810480F581E02D06
:100AF00061E0EECFE881F9810480F581E02D63E0CB
:100B0000E7CFE881F9810480F581E02D62E0E0CF54
:100B1000DC01ED91FC910480F581E02D43705527B7
:100B200066277727423051056105710571F0433022
:100B300051056105710559F0413051056105710597
:100B400011F065E0099466E0FDCF6AE0FBCF69E053
:100B5000F9CFCF93DF93EC01CB01BA0123E030E072
:100B600040E050E00E941A24613071058105910532
:100B700099F06230710581059105A9F0672B682B0A
:100B8000692BC1F4E881F9810480F581E02D64E0EE
:100B9000CE01DF91CF910994E881F9810480F5813C
:100BA000E02D61E0F5CFE881F9810480F581E02D49
:100BB00062E0EECFDF91CF910895DC01ED91FC91E1
:100BC0000480F581E02D4370552766277727423052
:100BD00051056105710571F04330510561057105DD
:100BE00059F0413051056105710511F062E0099439
:100BF00063E0FDCF61E0FBCF60E0F9CFCF93DF93FF
:100C0000EC01E881F9810480F581E02D8A8160E0C2
:100C1000811162E0CE010995E881F9810480F581B6
:100C2000E02D8A8161E0811163E0CE0109958CA5F8
:100C30009DA58230910538F0880F991F880F991F64
:100C400005970197F1F7E881F9810480F581E02D9E
:100C50008A8160E0811162E0CE01DF91CF91099439
:100C6000CF93DF93EC0120E030E0A9016C897D890E
:100C70008E899F890E94492618162CF4E8A9F9A9A3
:100C8000DF91CF910994EAA9FBA9FACFCF92DF9225
:100C9000EF92FF920F931F93CF93DF93DC01139694
:100CA000CC91C43039F0C83059F1C33019F0C63096
:100CB00049F1C2E08C010C5F1F4FF12CE12CC62ED4
:100CC000D12CD1E0F8016481C6010E2C02C09595AB
:100CD00087950A94E2F780FD6D270F5F1F4F808193
:100CE0000E942103BFEFEB1AFB0AEC1658F3DF91C9
:100CF000CF911F910F91FF90EF90DF90CF900895CB
:100D0000C4E0D8CFC3E0D6CFDC011396EC911397A3
:100D1000E93008F038C0F0E0E057F94F0C946A274A
:100D200099069F06A506AB06B106C306B706C3061D
:100D3000BD06ED91FC910084F185E02D0994ED91C3
:100D4000FC910284F385E02DF9CFED91FC910484B0
:100D5000F585E02DF3CFED91FC910684F785E02D2C
:100D6000EDCFED91FC910088F189E02DE7CFED9179
:100D7000FC910288F389E02DE1CFED91FC9104888C
:100D8000F589E02DDBCF08954F925F926F927F92AD
:100D90008F929F92AF92BF92CF92DF92EF92FF928B
:100DA0000F931F93CF93DF93EC01C888D988EA880B
:100DB000FB888C859D85AE85BF85C81AD90AEA0A4D
:100DC000FB0A6C897D898E899F899B01AC010E94F9
:100DD00082264B015C016C8D7D8D8E8D9F8D9B01DC
:100DE000AC010E947E249B01AC01C501B4010E94AC
:100DF000EF240E946125C114D104E104F10409F03B
:100E0000B1C062307105810591050CF0CBC01CA208
:100E10001DA21EA21FA21C8A1D8A1E8A1F8A1CAA2E
:100E20001DAA1EAA1FAADF91CF911F910F91FF90BB
:100E3000EF90DF90CF90BF90AF909F908F907F907A
:100E40006F905F904F9008951016110612061306CA
:100E5000B4F46C157D058E059F051CF42A812111C3
:100E6000A1C09B01AC0188279927DC01821B930B51
:100E7000A40BB50B8CAB9DABAEABBFAB93C0011558
:100E800011052105310509F48DC06C157D058E0510
:100E90009F050CF087C08A81882309F483C03095B0
:100EA0002095109501951F4F2F4F3F4F0CAB1DAB59
:100EB0002EAB3FAB77C0011511052105310509F4B3
:100EC00071C08824992454018C189D08AE08BF086D
:100ED000681579058A059B050CF064C08A8181112B
:100EE00061C0DDCFCCACDDACEEACFFACA7019601B0
:100EF000C701B6010E947E242B013C01C501B4014B
:100F00000E94992520E030E040E850E40E948226CB
:100F100020E030E040E85FE30E947E249B01AC01CA
:100F2000C301B2010E94EF249B01AC01C701B601CD
:100F30000E947D243B016C01FE01E05CFF4FE080DC
:100F4000F180028113819701A8010E944926181699
:100F500014F473018601C701D8018CAF9DAFAEAF09
:100F6000BFAF3AC00CA91DA92EA93FA91C141D048E
:100F70001E041F040CF468CF101611061206130687
:100F80000CF099CF0027112798010C191D092E0983
:100F90003F0960177107820793070CF062CF2A811F
:100FA00021115FCF8CA89DA8AEA8BFA88114910481
:100FB000A104B10409F096CF88AD99ADAAADBBAD3F
:100FC0008CAF9DAFAEAFBFAF81E01C141D041E04FB
:100FD0001F040CF080E08A833FEF831A930AA30A70
:100FE000B30A8CAA9DAAAEAABFAACCACDDACEEAC6B
:100FF000FFACC701B6010E9468256CA37DA38EA338
:101000009FA3A701960160E074E284E799E40E943F
:10101000EF246C8B7D8B8E8B9F8B2A81211103CFCC
:1010200090586C8B7D8B8E8B9F8BFDCEDC012C9131
:101030001196ED91FC91F8948181822B81839281AC
:10104000322F30959323928387E090E00197F1F758
:1010500081818323818383E290E00197F1F790817E
:101060007894EFECF0E03197F1F7922381E009F406
:1010700080E00895FC0190810180F281E02D292F0C
:10108000209560FF14C0F89482818223828381813D
:10109000892B8183A3E2B0E01197F1F78281982B2D
:1010A0009283789487ED90E00197F1F70895F89492
:1010B0008281822382838181892B8183AFEFB0E09B
:1010C0001197F1F78281982B928378948FE090E0CA
:1010D000EBCFDF92EF92FF920F931F93CF93DF93AB
:1010E000EC01D62EE42E08E010E0FF24F39461E03A
:1010F0008D2D8F2109F460E0CE010E943A08FF0C8B
:1011000001501109A1F7E11010C0F894E981FA81AA
:1011100091818881809589238183E981FA819281F7
:1011200088818095892382837894DF91CF911F9164
:101130000F91FF90EF90DF900895FC019081018066
:10114000F281E02DF8948181292F209582238183DB
:1011500078943DE743E050E0315029F1DA011197EE
:10116000F1F780818923C1F3F894828182238283FD
:101170008181892B81837894ABE7B7E01197F1F7F0
:10118000F894818182238183A3E1B1E01197F1F783
:101190008081982381E009F080E07894E3E6F6E02E
:1011A0003197F1F7089580E008958F929F92AF9262
:1011B000BF92CF92DF92EF92FF920F931F93CF9344
:1011C000DF938C01C62FD42FFC0110821182128272
:1011D0001382148261E08C2F0E944F0360E08C2FF9
:1011E0000E9421036D2F70E090E080E00E94B00328
:1011F00060E08C2F0E944F038BE990E00197F1F79C
:1012000040E9E42EFF24F3948C2F0E94F802892BEE
:1012100099F4F1E0EF1AF108B9F78EEF9FEFDF9143
:10122000CF911F910F91FF90EF90DF90CF90BF90E3
:10123000AF909F908F90089530E9E32EFF24F394B0
:101240008C2F0E94F802019729F481E0E81AF10836
:10125000B9F7E3CF28E2F22ED0E8E12C90E9C92ECD
:10126000DD24D3948C2F0E94F802892B29F4E1E02D
:10127000CE1AD108B9F7D1CF0E948B034B015C0184
:1012800080E9C82EDD24D3948C2F0E94F8020197A8
:1012900029F4F1E0CF1AD108B9F7BFCF0E948B0330
:1012A000681979098A099B096932710581059105D7
:1012B00030F0F801EE0DF11D80818D2B8083D695E5
:1012C00011F4E394D0E8FA94F110C8CF90E080E0F4
:1012D000A6CF2091EF02260F3327331F213231058D
:1012E000ECF420913306FC0190E080E0243069F0BA
:1012F00082E00895A091EF022191AC0143535D4F2C
:10130000A40FB52FB11D2C930196861798F38091E9
:10131000EF02680F6093EF0280E0089581E0089586
:101320001092330681E08093320610920D0661E040
:1013300082E00E94210361E083E00E942103E9EB47
:10134000F0E080818E7F808380818D7F808388E440
:101350008093B80085E48093BC000895CF93DF9319
:1013600091E09093CC028823B9F0C091B800D0915D
:10137000BA008091BC008A7B8093BC0060E082E070
:101380000E94210360E083E00E9421030E949009F3
:10139000D093BA00C093B800DF91CF9108958F9297
:1013A0009F92AF92BF92CF92DF92EF92FF920F93F4
:1013B0001F93CF93DF93D0915C06D13208F0D7C052
:1013C000182FC0915B060E948B036B017C018091FA
:1013D000330681116BC082E080933306109332068E
:1013E0008FEF8093310610923006D0932F06ABE337
:1013F000B6E0EFE0F6E080E0D81391C010920E0660
:1014000080910E06CC0FC82BC0930E0680910D065E
:10141000813009F088C010920D060E948B036B0189
:101420007C0180910E068093BB00809135069091DF
:101430003606A0913706B0913806892B8A2B8B2B64
:10144000A1F00E948B030091350610913606209181
:101450003706309138066C197D098E099F090617E9
:1014600017072807390708F442C08091BC0083FDA4
:10147000D8CF85EC8093BC000E948B036B017C016C
:1014800080913306823009F450C0809131068F3F3D
:1014900009F46FC080913106803209F46CC08091EC
:1014A0003106803309F469C084E026C08091350696
:1014B00090913606A0913706B0913806892B8A2B79
:1014C0008B2B09F484CF0E948B038090350690907B
:1014D0003606A0903706B09038066C197D098E0943
:1014E0009F0986169706A806B90608F070CF809166
:1014F00034060E94AE0985E010923A0610925C060E
:1015000010923906DF91CF911F910F91FF90EF90CC
:10151000DF90CF90BF90AF909F908F9008959D9156
:1015200091938F5F69CF85EEA5CF8091350690911D
:101530003606A0913706B0913806892B8A2B8B2B63
:1015400009F49ECF0E948B03009135061091360658
:1015500020913706309138066C197D098E099F0954
:10156000061717072807390708F08ACFC0CF81E090
:10157000C3CF80E0C1CF82E0BFCF83E0BDCF08956D
:1015800008950895E091CB028091CA02E81730F4E3
:10159000F0E0E655FD4F808190E008958FEF9FEFDA
:1015A00008959091CB028091CA022FEF3FEF9817D8
:1015B00048F4E92FF0E0E655FD4F208130E09F5FD1
:1015C0009093CB02C90108958091CA029091CB02F9
:1015D000891B990B0895CF92DF92EF92FF920F93A0
:1015E0001F93CF93DF937C01CB018A0120913906B1
:1015F000222389F0EB016B01C40ED51ECC15DD054D
:1016000069F06991D701ED91FC910190F081E02D95
:10161000C7010995F3CF642F0E946909C801DF91C2
:10162000CF911F910F91FF90EF90DF90CF90089591
:10163000CF93DF931F92CDB7DEB769832091390630
:101640002223F9F020915C06203258F021E030E0AE
:10165000FC013383228390E080E00F90DF91CF91F3
:10166000089580913A06E82FF0E0E55CF94F998102
:1016700090838F5F80933A0680935C0681E090E0D0
:10168000ECCF61E0CE0101960E946909F7CF90E0AE
:1016900080E008950E9426011092FE0564E170E04A
:1016A00080E090E00C94B00381E08093FE0564E15B
:1016B00070E080E090E00E94B0030C942601CF928D
:1016C000DF92EF92FF920F931F93CF93DF9300D09F
:1016D0001F92CDB7DEB782E0898382E18A83E091F1
:1016E0002203F0E0EE0FFF1FE05CFC4F0081118150
:1016F00020E030E0A901F80164897589868997891D
:101700000E94EA24811126C081E0F801C088D188B6
:10171000E288F3884485558566857785C416D506A5
:10172000E606F70609F480E08B8343E050E0BE0153
:101730006F5F7F4F8DE596E00E94E3030F900F905F
:101740000F90DF91CF911F910F91FF90EF90DF905D
:10175000CF90089581E0E8CFE0912203F0E0EE0F12
:10176000FF1FE05CFC4F0190F081E02D81E0909143
:101770002703911101C080E091E0209126032111FF
:1017800001C090E021E030912503311101C020E03B
:1017900031E040912403411101C030E041E050911B
:1017A0002303511101C040E040873187228793878E
:1017B00086A70895E0912203F0E0EE0FFF1FE05CA2
:1017C000FC4F0190F081E02D81E090912503911173
:1017D00001C080E091E020912303211101C090E03D
:1017E00021E030912403311101C020E0208791874E
:1017F00086A70895CF93DF93E0912203F0E0EE0FE8
:10180000FF1FE05CFC4FC081D181809123038FA733
:101810008F3F59F061E00E944F036EA581E0682779
:101820008FA5DF91CF910C942103DF91CF91089583
:10183000A2E2B3E0EC91F0E0EE0FFF1FE05CFC4FA2
:101840000190F081E02D11968C91119790E0982FE6
:10185000882712962C91820F911D95A784A7089531
:10186000E0912203F0E0EE0FFF1FE05CFC4F80816F
:101870009181DC01ED91FC910280F381E02D0994CE
:10188000E0912203F0E0EE0FFF1FE05CFC4F80814F
:101890009181DC01ED91FC910190F081E02D0994A2
:1018A0004F925F926F927F928F929F92AF92BF9270
:1018B000CF92DF92EF92FF92CF93DF9300D000D0D0
:1018C00000D0CDB7DEB7E0912203F0E0EE0FFF1FAE
:1018D000E05CFC4F808191819E838D83DC01549676
:1018E0008D909D90AD90BC90579720E030E0A9017D
:1018F000C501B4010E94EA24882309F455C0A5015A
:101900009401C501B4010E9482266B017C01ED8126
:10191000FE81648D758D868D978D9B01AC010E9433
:101920007E249B01AC01C701B6010E94EF240E94F6
:1019300061256B017C01AD81BE811C964D905D904F
:101940006D907C901F9750968D919D910D90BC91BC
:10195000A02D89839A83AB83BC8320E030E0A9016A
:10196000C501B4010E94492618160CF049C0BFEF0A
:10197000CB1ADB0AEB0AFB0A4C0C5D1C6E1C7F1CAD
:1019800089819A81AB81BC81481659066A067B061B
:1019900059F0AD81BE8150964D925D926D927C92D0
:1019A0005397CD010E94C406E0912203F0E0EE0FB0
:1019B000FF1FE05CFC4F80819181DC01ED91FC9187
:1019C0000190F081E02D0995E0912203F0E0E85BC1
:1019D000FC4F8BE2808326960FB6F894DEBF0FBED5
:1019E000CDBFDF91CF91FF90EF90DF90CF90BF9070
:1019F000AF909F908F907F906F905F904F900895E1
:101A0000C094D094E094F094B7CFE0912203F0E03A
:101A1000E85BFC4F8AE280830895E2E2F3E0A28172
:101A2000B0E020E030E041E051E00E943924AB0119
:101A3000BC01838190E0982F8827092E000CAA0B07
:101A4000BB0B840F951FA61FB71F2481820F911D0A
:101A5000A11DB11DE081F0E0EE0FFF1FE05CFC4F27
:101A60000190F081E02D84879587A687B787808BCA
:101A7000918BA28BB38B14AA15AA16AA17AA14A22B
:101A800015A216A217A2148A158A168A178A089513
:101A9000CF93DF9300D000D000D01F92CDB7DEB738
:101AA00086E0898381E18A83E0912203EB83F0E081
:101AB000EE0FFF1FE05CFC4F0190F081E02D80896C
:101AC0009189228933893C832D839E838F8347E0CC
:101AD00050E0BE016F5F7F4F8DE596E00E94E3030B
:101AE00027960FB6F894DEBF0FBECDBFDF91CF9122
:101AF0000895CF93DF9300D000D000D01F92CDB7D0
:101B0000DEB786E0898380E18A83E0912203EB835C
:101B1000F0E0EE0FFF1FE05CFC4F0190F081E02D44
:101B200080899189228933893C832D839E838F8389
:101B300047E050E0BE016F5F7F4F8DE596E00E9469
:101B4000E30327960FB6F894DEBF0FBECDBFDF913B
:101B5000CF910895CF93DF9300D000D000D01F9293
:101B6000CDB7DEB786E089838FE08A83E0912203D8
:101B7000EB83F0E0EE0FFF1FE05CFC4F0190F08183
:101B8000E02D80899189A289B38944855585668530
:101B90007785841B950BA60BB70BBC83AD839E8307
:101BA0008F8347E050E0BE016F5F7F4F8DE596E089
:101BB0000E94E30327960FB6F894DEBF0FBECDBF99
:101BC000DF91CF9108954F925F926F927F92AF9283
:101BD000BF92CF92DF92EF92FF920F931F93CF931A
:101BE000DF9360912303862F90E0982F88276091E0
:101BF0002403680F792F711D072E000C880B990B99
:101C00000E9499255B018C01E0912203F0E0EE0F28
:101C1000FF1FE05CFC4FC081D1812C893D894E893A
:101C20005F890E94EA24882379F1488C598C6A8C58
:101C30007B8C73016201F7FAF094F7F8F094A70136
:101C40009601B501C8010E94EA2487FD0CC0A301DA
:101C50009201B501C8010E9449267301620118165C
:101C600014F06501780120E030E0A901C701B60158
:101C70000E94EA24811117C01CA21DA21EA21FA24D
:101C8000CC8ADD8AEE8AFF8ADF91CF911F910F9176
:101C9000FF90EF90DF90CF90BF90AF907F906F90CC
:101CA0005F904F900895A701960160E074E284E789
:101CB00099E40E94EF249F770E9468256CA37DA37E
:101CC0008EA39FA311E020E030E0A901C701B60177
:101CD0000E94492618160CF010E01A83D1CFCF923B
:101CE000DF92EF92FF920F931F93CF93DF93609158
:101CF0002303862F90E0982F882760912403680F94
:101D0000792F711D072E000C880B990B0E949925C5
:101D10006B017C01E0912203F0E0EE0FFF1FE05C1D
:101D2000FC4FC081D18120E030E0A9010E94EA246B
:101D300087FF04C0F7FAF094F7F8F094A701960132
:101D4000688D798D8A8D9B8D0E94EA24882309F401
:101D500046C0C88ED98EEA8EFB8E8E01005C1F4F66
:101D6000A701960160E074E284E799E40E94EF2401
:101D7000F80160837183828393838CA99DA9AEA9A6
:101D8000BFA9181619061A061B064CF56C897D8921
:101D90008E899F899B01AC010E9482266B017C0188
:101DA0006C8D7D8D8E8D9F8D9B01AC010E947E245C
:101DB0009B01AC01C701B6010E94EF240E9461257E
:101DC0006CAB7DAB8EAB9FABCE01DF91CF911F9102
:101DD0000F91FF90EF90DF90CF900C94C406DF91AD
:101DE000CF911F910F91FF90EF90DF90CF900895CA
:101DF000E0912203F0E0E85BFC4F85E280830895E8
:101E0000E0912203F0E0E85BFC4F84E280830895D8
:101E10000F931F930091230310E030E020E0302F58
:101E20002227112700278091240390E0B0E0A0E052
:101E3000BC0155274427040F151F261F371F80910B
:101E4000250390E0982F8827092E000CAA0BBB0BC6
:101E5000AC01BD01400F511F621F731F809126030B
:101E6000480F511D611D711D80912703882339F092
:101E700070956095509541955F4F6F4F7F4FE09102
:101E80002203F0E0EE0FFF1FE05CFC4F0190F081B9
:101E9000E02D84859585A685B785840F951FA61F9F
:101EA000B71F408951896289738984179507A607EE
:101EB000B70749F0808B918BA28BB38BCF011F9119
:101EC0000F910C94C4061F910F9108950F931F93C7
:101ED0000091230310E030E020E0302F222711276B
:101EE00000278091240390E0B0E0A0E0BC015527DA
:101EF0004427040F151F261F371F8091250390E0EC
:101F0000982F8827092E000CAA0BBB0BAC01BD0132
:101F1000400F511F621F731F80912603480F511DF0
:101F2000611D711D80912703882339F0709560959C
:101F3000509541955F4F6F4F7F4FE0912203F0E046
:101F4000EE0FFF1FE05CFC4F80819181FC01008956
:101F5000118922893389401751076207730741F0BD
:101F6000408B518B628B738B1F910F910C94C40625
:101F70001F910F910895CF93DF9300D000D0CDB77C
:101F8000DEB720912203A3E2B3E0E0E0215088F025
:101F90008D918E27E82FEF70F0E0E455FF4F94917C
:101FA000E82FE295EF70F0E0E454FF4FE491E92769
:101FB000EDCF83E089838EE08A8380E28B83EC839C
:101FC00044E050E0BE016F5F7F4F8DE596E00E94D8
:101FD000E3030F900F900F900F90DF91CF91089532
:101FE000E091A702F091A802138615861486128646
:101FF0001186108617821682158214821382089524
:10200000CF92DF92EF92FF920F931F93CF93DF93C4
:1020100000D000D0CDB7DEB7C090A702D090A80204
:1020200088E0E82EF12C10E001E0C6010E941608BD
:102030008111102B000F81E0E81AF108B1F783E05D
:1020400089838EE08A838DE18B831C8344E050E09A
:10205000BE016F5F7F4F8DE596E00E94E3030F9016
:102060000F900F900F90DF91CF911F910F91FF90E4
:10207000EF90DF90CF900895E2E2F3E0418160813C
:102080008091A7029091A8020C94690840E06CEC42
:102090008091A7029091A8020C946908CF92DF92D8
:1020A000EF92FF920F931F93CF93DF93CDB7DEB7DD
:1020B00028970FB6F894DEBF0FBECDBFE2E2F3E083
:1020C0008E010F5F1F4FD80181918D9383E0EA321B
:1020D000F807D1F7E090A702F090A80240E065E58C
:1020E000C7010E9469086801E8E0CE0ED11CF80122
:1020F00061918F0140E0C7010E946908C016D106B6
:10210000B1F728960FB6F894DEBF0FBECDBFDF91B2
:10211000CF911F910F91FF90EF90DF90CF90089596
:10212000CF93DF9300D000D0CDB7DEB78091A70268
:102130009091A8020E949D0893E099839EE09A8363
:1021400099E19B838C8344E050E0BE016F5F7F4F39
:102150008DE596E00E94E3030F900F900F900F9093
:10216000DF91CF9108951F93CF93DF93C2E2D3E025
:10217000CE018252934021962091220328171906FE
:1021800059F054F0188161E0812F0E944F0361E003
:10219000812F0E942103ECCFCFB7F8948091660283
:1021A000811127C0E7E0F1E08491E6E2F1E094914B
:1021B000E82FF0E0EE0FFF1FE453FF4FA591B4911D
:1021C000EC91E92321F461E081E10E94210361E0C7
:1021D00081E10E944F038CB580618CBD8CB5806419
:1021E0008CBD61E08FE00E944F0361E080E10E94BE
:1021F0004F03809166028F5F80936602CFBFDF91AD
:10220000CF911F910895CF93DF9380912403811183
:1022100006C08DEA96E090936502809364028091F7
:10222000230391E09093390680935B0610923A065F
:1022300010925C06C2E2D3E0CE0182529340219616
:10224000209122032817190671F06CF08091640226
:1022500090916502DC01ED91FC910190F081E02DFF
:102260006A810995E9CF81E00E94CF0983E191E07D
:102270000197F1F7DF91CF910895809122038111A9
:1022800016C01092CB021092CA0210923A06109217
:102290005C060E9490098FEB9AE09093EE02809387
:1022A000ED0280EC9AE09093F2028093F10208959F
:1022B000CF93DF9320912203A8E1B2E0CEEDD6E0E8
:1022C0003FEF8D91821310C0FD0131973083E8817B
:1022D0008E2F90E0FC01EE0FFF1FE80FF91FE7546F
:1022E000F94F80818F7B8083239682E0A432B807E8
:1022F00041F7DF91CF9108958F929F92AF92BF9255
:10230000FF920F931F93CF93DF9320912203E8E175
:10231000F2E090E080E03191321367C0FC01EE0FF3
:10232000FF1FE80FF91FE252F94FF0808BE08F1585
:1023300008F451C0828108E512E0081B110987FDED
:102340001395000F111F000F111F8181C8E8D0E005
:10235000C81BD10987FDD395CC0FDD1FCC0FDD1F26
:102360004E010D2E000CAA08BB08A0912303B0E07B
:10237000A53BB10514F0A4EBB0E09801012E000CD0
:10238000440B550B281939094A095B090E9444245A
:1023900024EB30E040E050E00E941A24820E931EAD
:1023A000A41EB51E8C169D062CF0E8018016910621
:1023B0000CF4E4012297CC0FDD1F2FB7F8948F2D7A
:1023C00090E0FC01EE0FFF1FE80FF91FE754F94FF3
:1023D000D283C1832FBFDF91CF911F910F91FF90C7
:1023E000BF90AF909F908F90089501968C3091058B
:1023F00009F091CFF0CFBF92CF92DF92EF92FF9290
:102400000F931F93CF93DF9300D0CDB7DEB7F0903B
:102410002203AEEDB6E010E000E08C91282F30E012
:10242000F901EE0FFF1FE20FF31FE754F94F908100
:1024300096FF13C00F5F1F4F13960C30110569F7FD
:1024400087E08983FA8242E050E0BE016F5F7F4FF0
:102450008DE596E00E94E30396C0B0902303C09000
:102460002403D0902503E0902603F801E85EFD4F99
:10247000F0828C3008F087C061E08F2D0E944F03FE
:10248000A801440F551FDA01A00FB11FA252B94F86
:102490008C91282F30E0F901EE0FFF1FE20FF31FA0
:1024A000E754F94F9F2D9F73F92E9081907CF92A64
:1024B000F0826B2D70E0762F66276C0D711D20E287
:1024C00032E0261B370B37FF02C02D5F3F4F35959B
:1024D00027953595279511962C93FA01E00FF11F5A
:1024E000E252F94F6D2D70E0762F66276E0D711D4B
:1024F00020E639E0261B370B37FF02C02D5F3F4F28
:10250000359527953595279522832CE0622F0E94DB
:102510004A27829FB001112430E020E0DB01A20FA6
:10252000B31FFD01EE0FFF1FEA0FFB1FE754F94F2A
:10253000908196FD16C02F5F3F4F2C30310571F70B
:1025400081110FC01092800082E080938100109270
:10255000850010928400B19A80916F008260809310
:102560006F00040F151FF801E252F94FE0818E2F22
:1025700090E0FC01EE0FFF1FE80FF91FE754F94F41
:102580008081806480830F900F90DF91CF911F91A5
:102590000F91FF90EF90DF90CF90BF900895CF9371
:1025A000DF9300D01F92CDB7DEB780918401909168
:1025B0008501A091860189839A83AB8343E050E033
:1025C000BE016F5F7F4F8DE596E00E94E3030F90A1
:1025D0000F900F90DF91CF910895CF93DF9300D0AC
:1025E00000D01F92CDB7DEB785E0E7E8F1E0DE016D
:1025F000119601900D928A95E1F745E050E0BE01F9
:102600006F5F7F4F8DE596E00E94E3030F900F9080
:102610000F900F900F90DF91CF910895CF93DF939C
:1026200000D01F92CDB7DEB782E0898384E18A8330
:10263000809121038B8343E050E0BE016F5F7F4FA9
:102640008DE596E00E94E3030F900F900F90DF91CD
:10265000CF9108952091230330E0809122038230AE
:10266000B1F128F4882341F08130B9F00895833026
:1026700009F18430C9F10895EAE0F4E01282359658
:1026800085E0EE3FF807D1F7EDE9F3E012823796E7
:1026900084E0E630F807D1F7089597E0929FF001C3
:1026A000939FF00D1124E356FC4F91819F3F71F0F1
:1026B0008283089587E0829FF001839FF00D1124AB
:1026C000E356FC4F81818F3F09F01282089585E027
:1026D000829FF001839FF00D1124E65FFB4F818103
:1026E0008F3FA1F381E0E4CF85E0829FF001839FDB
:1026F000F00D1124E65FFB4FE5CF1F93CF93DF93DF
:1027000010912203C0912303D0E0DC2FCC278091CD
:102710002403C80FD11D61E0812F0E944F03209731
:1027200039F460E0812FDF91CF911F910C94210348
:10273000CF3FD10511F461E0F5CFE12FF0E0EC5C83
:10274000FE4FE491E150EF3008F07FC0F0E0E55536
:10275000FC4E0C946A27BA13C213C713D113DB13B0
:10276000251425142514E513EF13F913031410147D
:102770002514181484B5806884BDC7BDDF91CF913E
:102780001F91089584B5806284BDC8BDF7CF809144
:102790008000806880938000D0938900C093880077
:1027A000EDCF80918000806280938000D0938B0079
:1027B000C0938A00E3CF809180008860809380007E
:1027C000D0938D00C0938C00D9CF80919000806809
:1027D00080939000D0939900C0939800CFCF8091C0
:1027E0009000806280939000D0939B00C0939A00E9
:1027F000C5CF80919000886080939000D0939D0019
:10280000C0939C00BBCF8091C00080688093C000C3
:102810008091C0008F7B8093C000C093CF00AECF6B
:102820008091C00080628093C000C093D000A6CF8A
:102830008091C20088608093C2008091C2008B7F2B
:102840008093C200C093D20099CFC038D1050CF05C
:1028500072CF67CFE2E2F3E0618180810C942103C3
:102860000C942A148091220380937D010895809115
:10287000220390912303913039F128F09230A1F096
:10288000933059F1089525E0829FF0011124E65F0D
:10289000FB4F118291E020912403211101C090E0AF
:1028A000928360E00C944F0325E0829FF001112495
:1028B000E65FFB4F918391E020912403211101C039
:1028C00090E0928362E0EECF25E0829FF001112438
:1028D000E65FFB4F918361E0E5CF27E0829FF00147
:1028E0001124E356FC4F91838091240390E0982FAC
:1028F000882720912503820F911D9683858381E08F
:1029000090912603911101C080E082830895CF93B6
:10291000DF9300D01F92CDB7DEB719821A821B82D7
:1029200082E08983809122038B8343E050E0BE01E3
:102930006F5F7F4F8DE596E00E94E3030F900F904D
:102940000F90DF91CF9108958EBD00000DB407FE6A
:10295000FDCF8EB50895CF93DF939091220383E04E
:10296000890F809367028DE0809368028091230332
:102970008093690290936A0280680E94A414C7E65B
:10298000D2E0CE01875692404091220350E021963A
:10299000841795072CF480E00E94A4148B83F1CF58
:1029A0004C5F5F4F67E672E08DE596E0DF91CF9177
:1029B0000C94E3030F931F93CF93DF9300912203B3
:1029C00010E0C2E2D3E0CE0182529340801791071B
:1029D0002CF489810E94A4142196F5CFDF91CF9128
:1029E0001F910F9108950E94540B109206041092AB
:1029F0000704109208041092090483E180937D017A
:102A0000AEEDB6E0EC918E2F90E0FC01EE0FFF1FD3
:102A1000E80FF91FE754F94F808186FF02C08F7BD2
:102A20008083139687E0A230B80761F7109298036D
:102A300010929403109295031092960310929703AC
:102A400081E280937C01E5E7F3E08EE1DF011D92F6
:102A50008A95E9F710927403109270031092710333
:102A6000109272031092730380ED97E090937B01B4
:102A700080937A01ECE4F3E084E2DF011D928A9511
:102A8000E9F70C944A0B4F925F926F927F928F926C
:102A90009F92AF92BF92CF92DF92EF92FF92CF932D
:102AA000DF93EC016A017B0120E030E0A901CB015A
:102AB000B6010E94EA2487FF04C0F7FAF094F7F801
:102AC000F0948C8C9D8CAE8CBF8CA7019601C501B7
:102AD000B4010E94EA24882309F449C06CA97DA9A5
:102AE0008EA99FA90E9499252B013C01A70196015F
:102AF000C501B4010E94EF249B01AC01C301B201E6
:102B00000E9482260E9461256CAB7DAB8EAB9FAB91
:102B1000A701960160E070E080E090E40E94EF245D
:102B20000E94F52626E53EE04DE25FE30E94822604
:102B300020E034E244E759E40E94822668AF79AF8E
:102B40008AAF9BAFCC8EDD8EEE8EFF8ECE01DF91F5
:102B5000CF91FF90EF90DF90CF90BF90AF909F907C
:102B60008F907F906F905F904F900C94C406DF9190
:102B7000CF91FF90EF90DF90CF90BF90AF909F905C
:102B80008F907F906F905F904F900895CF92DF92DB
:102B9000EF92FF9260912303862F90E0982F882771
:102BA00060912403680F792F711D072E000C880B8C
:102BB000990B0E9499256B017C0120E030E0A9016E
:102BC0000E94EA24882389F0E0912203F0E0EE0FCE
:102BD000FF1FE05CFC4FB701A60180819181FF904F
:102BE000EF90DF90CF900C944315FF90EF90DF9023
:102BF000CF90089585ED8093BC008091350690912B
:102C00003606A0913706B09138060796A11DB11D72
:102C100023E0B695A795979587952A95D1F72091AA
:102C2000BC0024FD03C01092330608954091350680
:102C3000509136066091370670913806452B462B29
:102C4000472B69F30097A105B10541F025E32A95CB
:102C5000F1F700000197A109B109E1CF8091340695
:102C60000C94AE09CF93DF9384E490E00E94702728
:102C7000EC012091280330912703409126035091C5
:102C800025036091240380912303EFEAF1E0F983A7
:102C9000E8838B831C861D861E861F86188A198AE8
:102CA0001A8A1B8A1C8A1D8A1E8A1F8A80E090E06D
:102CB000A0E8BFE3888F998FAA8FBB8F1C8E1D8ED3
:102CC0001E8E1F8E88A399A3AAA3BBA31CA21DA21C
:102CD0001EA21FA2E1E0F0E0FDA7ECA77FEF7FA717
:102CE00018A619A61AA61BA66C835D834E833F8384
:102CF0001EA61CAA1DAA1EAA1FAA18AE19AE1AAE9D
:102D00001BAE1CAE1DAE1EAE1FAEFE01E05CFF4F43
:102D100080839183A283B3831A82188619861A86C8
:102D20001B86222319F0CE010E94B10440E050E03E
:102D300060E87FE3CE010E944315E0912203F0E0BA
:102D4000EE0FFF1FE05CFC4FD183C083DF91CF917A
:102D500008951F93CF93DF938EE090E00E94702739
:102D6000EC011091220360E0812F0E944F03812F1C
:102D700090E0FC01EB5EFE4FE491E883FC01EA5039
:102D8000FF4FE491F0E0EE0FFF1FE851FF4F8591F8
:102D900094919A8389831B861D861C861A861986C0
:102DA00018861F821E821D821C821B82D093A8025D
:102DB000C093A702DF91CF911F910895CF93C09147
:102DC0007403C63028F58EE090E00E947027DC0185
:102DD00015961C9215971A961D921D921D921C9283
:102DE0001D9716961D921D921D921C92199786E0B2
:102DF000C89FF0011124E45BFC4FB583A48380914C
:102E000022038083809123038183CF5FC093740367
:102E1000CF910895CF93DF938BE090E00E947027CD
:102E2000EC0120912303809122038883298391E080
:102E3000281390E09A8361E00E944F0360E089814B
:102E40000E944F0380E898E3A1E0B0E08F83988769
:102E5000A987BA878091980395E0899FF001112492
:102E6000EB58FC4FD483C3839091220390838F5FF0
:102E700080939803DF91CF910895BF92CF92DF9214
:102E8000EF92FF920F931F93CF93DF93CDB7DEB7EF
:102E90002B970FB6F894DEBF0FBECDBF8BE0ECE8EA
:102EA000F1E0DE01119601900D928A95E1F7009113
:102EB000A7021091A802D8011D968C918823E9F0F1
:102EC000F8011386158614864BE050E0BE016F5F53
:102ED0007F4F8DE596E00E94E3032B960FB6F894A2
:102EE000DEBF0FBECDBFDF91CF911F910F91FF903D
:102EF000EF90DF90CF90BF900895C8010E949D0889
:102F000081110AC0D8011B961C921B971D961C921A
:102F10001D971C961C92D8CF40E060EFC8010E941C
:102F20006908EE24E394C12CB12CFF24F394C8016A
:102F30000E941608D82EC8010E941608B1E0DB12C4
:102F400020C0813009F03FC0E0E4EF1508F0B8CFB1
:102F5000D8011B96BC921B97B11003C081E01D964F
:102F60008C93F8018381882309F4AACF3396DE017C
:102F70001496055F1F4F81918D930E171F07D9F788
:102F8000A3CFEC2DF0E0D81214C0D8011B968C9181
:102F90001B97F816B0F4AE0FBF1F13968C918E21BD
:102FA00091F4D12CB8E0BF1518F0D8011C96FC9212
:102FB000BF2CE00FF11F83819E2D90958923838381
:102FC0000AC08F11EECFF801EC0DF11D83818E291F
:102FD0008383DD24D3946D2DC8010E943A08F394B5
:102FE000EE0C19F4C394EE24E394B7E0BC1508F09A
:102FF0009ECFAACF4F925F926F927F928F929F92B5
:10300000AF92BF92DF92EF92FF920F931F93CF93F5
:10301000DF9300D000D0CDB7DEB700912203D0906F
:10302000230380912603811106C08DEA96E09093D8
:10303000650280936402809127038823C9F0809100
:1030400064029091650221E02093390600935B06AB
:1030500010923A0610925C06DC01ED91FC91019011
:10306000F081E02D6D2D0995809125030E94CF09F7
:10307000109124030E948B034B015C018091330665
:10308000811169C0113208F010E281E080933306AB
:10309000809332069FEF9093310610923006910F85
:1030A00090932F0680930E0690910E06802F880F26
:1030B000892B80930E0680910D06813009F0ABC0FC
:1030C00010920D060E948B034B015C0180910E064D
:1030D0008093BB008091350690913606A09137060B
:1030E000B0913806892B8A2B8B2BA1F00E948B0381
:1030F000409035065090360660903706709038063E
:10310000681979098A099B094616570668067906DF
:1031100008F442C08091BC0083FDD8CF85EC809339
:10312000BC000E948B034B015C018091330681300F
:1031300009F473C080913006811710F410913006A5
:10314000AFE0B6E0EAEAF2E080E0811751F19D914C
:1031500091938F5FFACF8091350690913606A091BA
:103160003706B0913806892B8A2B8B2B09F486CF32
:103170000E948B03409035065090360660903706CB
:1031800070903806681979098A099B09461657060E
:103190006806790608F072CF809134060E94AE0965
:1031A00010E01092CB021093CA02E0902403F12C9D
:1031B0008091640290916502DC01ED91FC910084A4
:1031C000F185E02D0995E816F9060CF048C083E07A
:1031D000898388E08A8381E08B830C8344E050E01C
:1031E000BE016F5F7F4F8DE596E00E94E3030F9075
:1031F0000F900F900F90DF91CF911F910F91FF9043
:10320000EF90DF90BF90AF909F908F907F906F90E6
:103210005F904F90089585EE82CF80913506909112
:103220003606A0913706B0913806892B8A2B8B2B56
:1032300009F47BCF0E948B034090350650903606F0
:103240006090370670903806681979098A099B09D9
:10325000461657066806790608F067CF9DCFE090BE
:103260002403F12C8091640290916502DC01ED91C0
:10327000FC910084F185E02D09958E159F0524F4BD
:1032800083E0898389E0A6CF8091240395E0980F9D
:10329000909324029AE090932502909126039093B4
:1032A00026028093270200932802D092290294E2FA
:1032B000E92E92E0F92E87010452124080912403F6
:1032C00080171106F9F0F4F0809164029091650284
:1032D000DC01ED91FC910084F185E02D0995BFEFB3
:1032E000EB1AFB0A892B71F08091640290916502C0
:1032F000DC01ED91FC910284F385E02D0995F70145
:103300008583D9CF84E2E82E82E0F82E0B5F1F4F31
:10331000C70184529240081719070CF468CFD701EF
:103320006D917D018DE596E00E943402F1CF089504
:103330001F920F920FB60F9211242F933F934F932A
:103340005F936F937F938F939F93AF93BF93CF932D
:10335000EF93FF93C091E1008091E100837F809320
:10336000E100C3FF0FC01092E90081E08093EB0001
:103370001092EC0082E38093ED0010920C0688E03E
:103380008093F000C2FF1AC00E94260180911E03A4
:10339000882341F080911E03815080931E03811188
:1033A00001C05D9A80910B06882341F080910B0645
:1033B000815080930B06811101C0289AC4FF23C05D
:1033C0008091E2008E7E81608093E2008091E10036
:1033D0008F7E8093E10080911F038E7E80618093B9
:1033E0001F03FF91EF91CF91BF91AF919F918F916B
:1033F0007F916F915F914F913F912F910F900FBEF1
:103400000F901F901895C0FFECCF8091E2008E7E48
:1034100080618093E2008091E1008E7E8093E100E4
:1034200080911F038E7E8160DACF1F920F920FB6BC
:103430000F921124CF92DF92EF92FF920F931F937E
:103440002F933F934F935F936F937F938F939F93AC
:10345000AF93BF93EF93FF93CF93DF93CDB7DEB7D7
:103460006C97DEBFCDBF1092E9008091E80083FF2A
:1034700025C068E0CE0145960E94270282EF809326
:10348000E8008D8987FF39C09091E80090FFFCCF5C
:10349000982F907609F034C19E894F89588D2F89D5
:1034A000F88C911131C0803861F5809120038093B0
:1034B000F1001092F1008EEF8093E8006C960FB649
:1034C000F894DEBF0FBECDBFDF91CF91FF91EF919A
:1034D000BF91AF919F918F917F916F915F914F912C
:1034E0003F912F911F910F91FF90EF90DF90CF9020
:1034F0000F900FBE0F901F9018959EEF9093E800CD
:10350000C7CF1092F100D5CF913059F48111D3CFAC
:103510004130510581F6809120038D7F80932003F7
:10352000CACF933049F48111C6CF4130510519F605
:10353000809120038260F2CF953041F48091E800C1
:1035400080FFFCCF20682093E300B5CF963009F0D0
:10355000A9C00B8D1C8D22E01092E90010921C0373
:1035600010921B03F2122EC010921A03109219032C
:103570000E94F6011F8299E09983FA8291E09E836E
:1035800090EA98879AEF998720911B0330911C034A
:10359000275F3F4F3C832B838D831092E90010926D
:1035A0001C0310921B0310931A030093190349E0A4
:1035B00050E0BE016F5F7F4F80E00E94D0010E940B
:1035C000F60179CF10931A03009319030E945B014F
:1035D000DC0112960D911C910115110509F451C1E0
:1035E000D801ED91FC910480F581E02DBE016B5E68
:1035F0007F4FC8010995009709F03EC1F801008589
:103600001185EACFF3E0FF120EC08F89882309F4F9
:1036100040C0823061F440E860E187EB91E00E94B5
:103620009D01811148CF81E28093EB0047CF81302B
:1036300029F440E86BE08BEA91E0F1CF833099F711
:103640000E945B01DC011296ED90FC908E010F5FF1
:103650001F4F6801E114F10479F0D701ED91FC915D
:103660000680F781E02DB801C7010995080F111DEB
:10367000F701E084F184EECFD8011C92F6010190AD
:103680000020E9F73197BF016C197D0940E0C601C0
:10369000C6CF65E971E0FB01449150E080E80E94EB
:1036A000D00109CF973009F4BECF983021F481E0E2
:1036B0008093F10000CF993009F0FDCE837009F0BE
:1036C000B2CFE6ECF1E081E031E096E321912223F4
:1036D00071F08093E9003093EB00DF0111972C919A
:1036E0002093EC009093ED008F5F873079F78EE7A1
:1036F0008093EA001092EA008F8980930C06DBCE5B
:103700008B8D9C8D1092E90010921C0310921B036C
:1037100090931A0380931903898D811192C08E8929
:103720009D89913A49F4813209F07DCF47E050E01C
:1037300064E071E080E0B3CF913209F074CF83325E
:1037400069F48F89988DB0E0A0E080930001909398
:103750000101A0930201B0930301ADCE803269F460
:103760008091E80082FFFCCF67E084E091E00E9456
:1037700027028BEF8093E8009ECE823209F09BCE29
:103780008F8980930B01EEEFFFE7859194918B3F3A
:103790009C4D51F1E0E0F8E0809104019091050129
:1037A000A0910601B0910701803B9440A105B105AD
:1037B000F1F480910B0180FD1AC0EE3F8AE0F8071A
:1037C00089F587E797E791838083809160008093F4
:1037D0001D0388E19BE00FB6F894A89580936000E4
:1037E0000FBE9093600067CEEEEFFAE0D5CF8081F8
:1037F00091818737974709F05ECEA8958091600048
:1038000088618093600080911D0380936000EE3F8B
:103810002AE0F20789F08091FE0A9091FF0A9183D5
:10382000808349CE808191818737980751F29093A8
:10383000FF0A8093FE0AC5CF1092FF0A1092FE0A7B
:103840003ACE0E945B01DC0112960D911C9101158C
:10385000110509F4E8CED801ED91FC910190F081B9
:10386000E02DBE016B5E7F4FC8010995811123CE0B
:10387000F80100851185EBCF181619060CF41BCE44
:10388000D2CEF1E0FF12BECE69E971E004CF1F9203
:103890000F920FB60F9211242F933F938F939F9304
:1038A000AF93BF938091990390919A03A0919B034A
:1038B000B0919C033091140323E0230F2D3758F56A
:1038C0000196A11DB11D2093140380939903909339
:1038D0009A03A0939B03B0939C038091150390914E
:1038E0001603A0911703B09118030196A11DB11DF5
:1038F0008093150390931603A0931703B0931803B6
:10390000BF91AF919F918F913F912F910F900FBEDB
:103910000F901F90189526E8230F0296A11DB11D48
:10392000D2CF1F920F920FB60F9211242F933F9375
:103930004F935F936F937F938F939F93AF93BF93B7
:10394000EF93FF938091B900887F803609F44AC0D5
:10395000F0F5883209F4A7C018F5803109F49BC04E
:10396000B8F4882309F4F9C0883009F494C0FF91B1
:10397000EF91BF91AF919F918F917F916F915F91E7
:103980004F913F912F910F900FBE0F901F90189560
:10399000883109F488C0803251F78093310614C011
:1039A000803409F49DC040F48033B9F38833F9F6CC
:1039B0008093310685ECB0C0803509F485C0883528
:1039C00009F496C0883499F60E94FA15D0CF883948
:1039D00009F48CC038F5883729F050F4883611F096
:1039E000803729F683E0809333061092130357C083
:1039F000883809F47BC0803919F0803809F0B7CFD6
:103A000080911303803208F071C0E091130381E0CC
:103A10008E0F809313038091BB00F0E0ED50FD4FBB
:103A200080833DC0803B39F0E0F4803A09F479C0EE
:103A3000883A09F09CCF84E0809333061092F0021C
:103A40001092EF02E091ED02F091EE020995809163
:103A5000EF0281110FC081E08093EF021092CD023E
:103A600009C0803C09F4A6CF883C09F4A3CF883B69
:103A700009F07DCFE091F00281E08E0F8093F0029B
:103A8000F0E0E353FD4F80818093BB009091F00202
:103A90008091EF0229C080910E068093BB0085ECD7
:103AA0008093BC0064CF9091300680912F069817C8
:103AB00058F5E091300681E08E0F80933006F0E0FB
:103AC000E15FF94F8081E9CFE091300681E08E0F10
:103AD000809330068091BB00F0E0E15FF94F808376
:103AE0009091300680912F069817C8F285E8D8CFBC
:103AF000E091300681E08E0F809330068091BB000C
:103B0000F0E0E15FF94F80838091320681115CCF54
:103B100081E080930D0684EA8093BC001092330606
:103B200026CF85EC8093BC0010923306809113035E
:103B3000803230F4E0911303F0E0ED50FD4F10823D
:103B40006091130370E0E091F102F091F20283EFD3
:103B500092E00995109213030ACF1092310634CFE8
:103B60001F920F920FB60F9211242F933F934F93F2
:103B70005F936F937F938F939F93AF93BF93CF93F5
:103B8000DF93EF93FF938091A902C091DD06D0E00F
:103B900087FF24C010928500109284008091A902B2
:103BA0008F5F8093A9028091A902082E000C990BC7
:103BB0008C179D0724F48091A9028C30C4F1809168
:103BC000840090918500049680349C4908F47AC062
:103BD0008091840090918500049676C08091A9021E
:103BE000082E000C990B8C179D07C4F6E091A902D2
:103BF0008E2FEE0F990BFC01EE0FFF1FE80FF91F40
:103C0000E754F94F808186FFC9CFE091A9028E2F3A
:103C1000EE0F990BFC01EE0FFF1FE80FF91FE754A1
:103C2000F94F808160E08F730E942103B7CF20910C
:103C3000840030918500E091A9028E2FEE0F990B40
:103C4000FC01EE0FFF1FE80FF91FE754F94F8181C8
:103C50009281820F931F9093890080938800E09156
:103C6000A9028E2FEE0F990BFC01EE0FFF1FE80F3C
:103C7000F91FE754F94F808186FF11C0E091A90236
:103C80008E2FEE0F990BFC01EE0FFF1FE80FF91FAF
:103C9000E754F94F808161E08F730E942103FF9107
:103CA000EF91DF91CF91BF91AF919F918F917F91D4
:103CB0006F915F914F913F912F910F900FBE0F9099
:103CC0001F90189580E49CE9909389008093880068
:103CD0008FEF8093A902E3CF1092600610925F06E7
:103CE00088EE93E0A0E0B0E08093610690936206D6
:103CF000A0936306B093640628EF31E030935E062C
:103D000020935D062FEF3FEF30936A0620936906FC
:103D10001092B0061092AF068093B1069093B2064F
:103D2000A093B306B093B4068AE092E09093AE06F7
:103D30008093AD06EEEDF6E022E037E04FEF68EB62
:103D40007BE08091DD068C30B0F491E0980F909389
:103D5000DD06808390E0DC01AA0FBB1FA80FB91F0E
:103D6000A754B94F12967C936E93119733962E17E2
:103D70003F0739F708954083F9CFCF93DF93CDB74D
:103D8000DEB765970FB6F894DEBF0FBECDBF78944F
:103D900084B5826084BD84B5816084BD85B5826050
:103DA00085BD85B5816085BD80916E008160809301
:103DB0006E0010928100809181008260809381006A
:103DC000809181008160809381008091800081607A
:103DD0008093800080919100826080939100809117
:103DE0009100816080939100809190008160809328
:103DF00090008091C10084608093C1008091C100D7
:103E000082608093C1008091C10081608093C10075
:103E10008091C30081608093C3008091C000826064
:103E20008093C0008091C20081608093C200809125
:103E30007A00846080937A0080917A008260809317
:103E40007A0080917A00816080937A0080917A0074
:103E5000806880937A0010920C06109220031092D2
:103E60001F038091D70081608093D70080EA809300
:103E7000D80089B5806189BD89B5826089BD09B4E2
:103E800000FEFDCF61E070E080E090E00E94B003B2
:103E90008091D8008F7C80618093D8008091E00071
:103EA000807F8093E0008091E1008E7E8093E1002E
:103EB0008DE08093E200559A209A809121038F63D0
:103EC000809321038BE2809348038093490380937E
:103ED0004A0380934B03EAE0F4E080E09FEF8083A5
:103EE00091831282148213828F5F35968436B9F7DC
:103EF000EDE9F3E080E09FEF8083918312821482EA
:103F00001382168215828F5F37968F30A9F78FEF55
:103F10009FEF90936A0680936906209197013091F4
:103F200098014091990150919A012A8B3B8B4C8BBF
:103F30005D8B812C70EC972E79E7A72E74ECB72E51
:103F40008EE1A2E2B3E01D928A95E9F78DE596E055
:103F50000E949202892B09F445C08DE596E00E94EB
:103F60005002082F182F8DE596E00E949202892BAF
:103F700039F461E070E080E090E00E94B003F3CF9C
:103F80008DE596E00E945002FC01EE0FFF1FEE7FD0
:103F9000F170E45FFE4FC080D180123008F152E230
:103FA000E52E53E0F52E0150110BC70182529340CC
:103FB00080179107ACF48DE596E00E949202892B60
:103FC00039F461E070E080E090E00E94B003F3CF4C
:103FD0008DE596E00E945002F70181937F01E5CFC5
:103FE000F60109958091FE058111ECC32A893B8970
:103FF0004C895D8929833A834B835C830AE014E012
:10400000F12CD80111968C9111978D7FE9F41296BD
:104010008C9112978823C1F08C910E94F8029C0128
:104020003327F801438154812417350769F034831D
:104030002383FB828C8344E050E0BE016F5F7F4F9F
:104040008DE596E00E94E3030B5F1F4FF394F4E6C7
:10405000FF12D7CF85E0EBE9F1E0DE011196019088
:104060000D928A95E1F78FB7F8940091990310911A
:104070009A0320919B0330919C038FBF809106048B
:1040800090910704A0910804B091090440917D012A
:1040900050E070E060E0081B190B2A0B3B0B401747
:1040A00051076207730708F07BC0840F951FA61F96
:1040B000B71F8093060490930704A0930804B0935D
:1040C00009040DE913E0F12CE12CD80111968C9133
:1040D0001197833009F05AC012968C91882309F405
:1040E00055C0F701EE0FFF1FE453FE4FE081E231B0
:1040F00008F0E251F0E0E853FE4FE49190917B002C
:104100008E2F880F880F80729F7D892B80937B0074
:10411000E770E064E0937C0080917A008064809393
:104120007A0080917A0086FDFCCF90917800809192
:104130007900892798278927F80123813481AC01E8
:10414000421B530B9A0157FF03C03195219531094A
:10415000D80115964D915C91169724173507B4F048
:1041600014969C938E931397EB829C838D8345E0EA
:1041700050E0BE016F5F7F4F8DE596E00E94E30344
:1041800061E070E080E090E00E94B003BFEFEB1AC6
:10419000FB0A095F1F4FEFE0EE16F10409F095CF1F
:1041A00080919803882309F4E3C08FB7F8940091B5
:1041B000990310919A0320919B0330919C038FBF28
:1041C0008091940390919503A0919603B0919703E9
:1041D00040917C0150E070E060E0081B190B2A0B55
:1041E0003B0B401751076207730708F0C1C0840FEB
:1041F000951FA61FB71F8093940390939503A093D8
:104200009603B0939703D0909303ED2CF12C25E007
:10421000D29EF0011124EB58FC4F03811481D80188
:1042200012968C911297882321F061E08C910E9464
:104230004F0360E0F80180810E94210383E090E059
:104240000197F1F761E0D8018C910E94210383E28C
:1042500090E00197F1F760E0F80180810E9421036E
:10426000D80112968C911297882321F060E08C91EE
:104270000E944F030E948B03F8016383748385833C
:104280009683D80111968C910E94F802892BA1F493
:104290000E948B03F8014380548065807680641906
:1042A000750986099709478050846184728446168F
:1042B00057066806790628F70E948B03D8011396E3
:1042C0006D937D938D939C931697F80181810E9445
:1042D000F802892BC1F00E948B03D80113964D90F0
:1042E0005D906D907C901697641975098609970901
:1042F00017964D905D906D907C901A9746165706D4
:104300006806790610F70E948B03F8012381348137
:10431000CB01821B930B68E370E00E94562785E077
:104320008E9DF0018F9DF00D1124EB58FC4F818183
:1043300092818617970799F07283618384E089835D
:104340008BE08A8380818B837C836D8345E050E0A2
:10435000BE016F5F7F4F8DE596E00E94E303D3942B
:10436000D092930380919803D81202C010929303C5
:104370008BE0E0EAF1E0DE01119601900D928A9562
:10438000E1F780917403882309F471C08FB7F89422
:104390004091990350919A0360919B0370919C0303
:1043A0008FBF8091700390917103A0917203B091BF
:1043B00073038A019B01081B190B2A0B3B0B80918D
:1043C0007A0190917B01B0E0A0E080179107A207ED
:1043D000B30708F04CC0409370035093710360938F
:1043E0007203709373033CE4632E33E0732E198AD7
:1043F000188A809174032889398982171306B9F1C4
:10440000B4F13AE039834CE04A83D3016C916C8378
:1044100011969C9111979D8314960D911C91F80112
:104420008581963109F0FCC0882309F0F89441E0B9
:10443000C8010E94D508D80115962C91222309F0B5
:104440007894F801009709F481C086829782A0864B
:10445000B18682869386A486B5868B834BE050E036
:10446000BE016F5F7F4F8DE596E00E94E30380E41D
:10447000E82E83E0F82E08E413E09BE2592E442452
:104480004394D8018C918B3209F491C1F70180815A
:104490009181DC01ED91FC910280F381E02D099581
:1044A000F8018081853209F472C18A3209F492C11F
:1044B000843209F07CC1D701CD90DC90F60184A153
:1044C00095A1A6A1B7A1892B8A2B8B2B41F0C60100
:1044D0000E946804882319F0C6010E94C406D7010F
:1044E000CD90DC9020E030E0A901F6016489758967
:1044F000868997890E94EA24811159C1D601509674
:104500004D915D916D917C9153971C968D919D91EC
:104510000D90BC91A02D481759076A077B0709F039
:1045200046C1B2E0B983E3E1EA83802F28E433E0B7
:10453000821B8B8343E050E0BE016F5F7F4F8DE5B0
:1045400096E00E94E303D8015C9231C1F180C08003
:104550006081718176276727762790E080E00E944E
:1045600097252DEC3CEC4CEC5DE30E948226D801B3
:1045700016966D937D938D939C9319971296EC905C
:1045800012971396DC906E2D6F7770E0762F66276A
:104590006D0D711D6115710579F4F8011286138690
:1045A00014861586FC0CEF0CDE0CD80114968C9149
:1045B000D816F9F08FEF51CF072E000C880B990B0E
:1045C0000E9499252DEC3CEC4CEC5DE30E94822688
:1045D000E7FC08C0D8011A966D937D938D939C9348
:1045E0001D97E0CF9058F80162877387848795877D
:1045F000D9CF1B82F30104811581D8011696CD9085
:10460000DD90ED90FC90199720E030E0A901C70102
:10461000B6010E94492687FF5EC081E08E835CC0A0
:10462000882309F0F89442E1C8010E94D508F801F6
:104630002581222309F07894D801009761F016961D
:104640008D929D92AD92BC921997F80182869386C5
:10465000A486B58602CFFC901196CC906C2D70E0AC
:1046600090E080E00E9499252DEC3CEC4CEC5DE361
:104670000E9482261B012C016F2D70E090E080E0EB
:104680000E9499259B01AC01C201B1010E947E24C8
:10469000F8016683778380879187E280D3806E2DCF
:1046A0006F7770E090E080E00E9499251B012C015B
:1046B0006D2D70E090E080E00E9499252DEC3CEC9F
:1046C0004CEC5DE30E9482269B01AC01C201B1016A
:1046D0000E947E247DCF1E82AE01445F5F4FC701E2
:1046E000B6010E944E266B017C016C857D858E850E
:1046F0009F850E946825688720E030E048EC52E4FE
:10470000C701B6010E9482260E9468256987F801C8
:10471000C284D384E484F58420E030E0A901C70199
:10472000B6010E94492687FD2FC01F82AE01445F5B
:104730005F4FC701B6010E944E266B017C016C855C
:104740007D858E859F850E9468256A8720E030E000
:1047500048EC52E4C701B6010E9482260E946825F7
:104760006B874BE050E0BE016F5F7F4F8DE596E0B9
:104770000E94E303288939892F5F3F4F398B288BAB
:1047800036E0630E711C35CE81E08F83CFCFF70109
:1047900080819181DC0194964D915D916D917C9128
:1047A0009797452B462B472B11F00E9468040F5F0B
:1047B0001F4FB2E0EB0EF11CECE4F3E0E017F10761
:1047C00009F05FCE80E090E0892B09F4B9CB0E941C
:1047D0000000B6CBD701ED91FC91408951896289E7
:1047E000738984859585A685B785481759076A0713
:1047F0007B0709F496CE84179507A607B707C4F47C
:10480000428284A195A1A6A1B7A1892B8A2B8B2BCB
:1048100019F0CF010E946804D701ED91FC91448505
:1048200055856685778580899189A289B38973CEFC
:104830001282E7CF052E97FB1EF400940E943124CC
:1048400057FD07D00E944C2407FC03D04EF40C9473
:10485000312450954095309521953F4F4F4F5F4FF4
:10486000089590958095709561957F4F8F4F9F4FDC
:1048700008950E946E24A59F900DB49F900DA49F53
:10488000800D911D11240895B7FF0C9439240E94C6
:104890003924821B930B0895A1E21A2EAA1BBB1B7D
:1048A000FD010DC0AA1FBB1FEE1FFF1FA217B307FC
:1048B000E407F50720F0A21BB30BE40BF50B661F12
:1048C000771F881F991F1A9469F7609570958095D6
:1048D00090959B01AC01BD01CF010895A29FB0014D
:1048E000B39FC001A39F700D811D1124911DB29F24
:1048F000700D811D1124911D08955058BB27AA27C2
:104900000E9495240C940F260E94012638F00E94E4
:10491000082620F039F49F3F19F426F40C94FE2564
:104920000EF4E095E7FB0C94F825E92F0E94202671
:1049300058F3BA17620773078407950720F079F4D4
:10494000A6F50C9442260EF4E0950B2EBA2FA02D5E
:104950000B01B90190010C01CA01A0011124FF272C
:10496000591B99F0593F50F4503E68F11A16F04027
:10497000A22F232F342F4427585FF3CF4695379526
:104980002795A795F0405395C9F77EF41F16BA0BEB
:10499000620B730B840BBAF09150A1F0FF0FBB1F99
:1049A000661F771F881FC2F70EC0BA0F621F731FE2
:1049B000841F48F4879577956795B795F7959E3F3F
:1049C00008F0B0CF9395880F08F09927EE0F9795D0
:1049D000879508950E94D42508F481E008950E94E7
:1049E00003250C940F260E94082658F00E940126E9
:1049F00040F029F45F3F29F00C94F82551110C94F4
:104A000043260C94FE250E94202668F39923B1F3D7
:104A1000552391F3951B550BBB27AA2762177307E4
:104A2000840738F09F5F5F4F220F331F441FAA1F78
:104A3000A9F335D00E2E3AF0E0E832D09150504034
:104A4000E695001CCAF72BD0FE2F29D0660F771FE2
:104A5000881FBB1F261737074807AB07B0E809F0C8
:104A6000BB0B802DBF01FF2793585F4F3AF09E3F4D
:104A7000510578F00C94F8250C9443265F3FE4F33D
:104A8000983ED4F3869577956795B795F7959F5F90
:104A9000C9F7880F911D9695879597F90895E1E0DC
:104AA000660F771F881FBB1F621773078407BA073B
:104AB00020F0621B730B840BBA0BEE1F88F7E09596
:104AC00008950E9468256894B1110C9443260895B6
:104AD0000E94282688F09F5798F0B92F9927B75140
:104AE000B0F0E1F0660F771F881F991F1AF0BA9592
:104AF000C9F714C0B13091F00E944226B1E0089588
:104B00000C944226672F782F8827B85F39F0B93F79
:104B1000CCF3869577956795B395D9F73EF4909544
:104B20008095709561957F4F8F4F9F4F0895E894C2
:104B300009C097FB3EF490958095709561957F4FE5
:104B40008F4F9F4F9923A9F0F92F96E9BB27939593
:104B5000F695879577956795B795F111F8CFFAF4A3
:104B6000BB0F11F460FF1BC06F5F7F4F8F4F9F4FD4
:104B700016C0882311F096E911C0772321F09EE832
:104B8000872F762F05C0662371F096E8862F70E098
:104B900060E02AF09A95660F771F881FDAF7880F72
:104BA0009695879597F90895990F0008550FAA0BC8
:104BB000E0E8FEEF16161706E807F907C0F0121630
:104BC0001306E407F50798F0621B730B840B950B33
:104BD00039F40A2661F0232B242B252B21F4089588
:104BE0000A2609F4A140A6958FEF811D811D089525
:104BF00097F99F6780E870E060E008959FEF80EC90
:104C0000089500240A941616170618060906089532
:104C100000240A9412161306140605060895092E98
:104C20000394000C11F4882352F0BB0F40F4BF2B07
:104C300011F460FF04C06F5F7F4F8F4F9F4F089547
:104C400057FD9058440F551F59F05F3F71F047953D
:104C5000880F97FB991F61F09F3F79F08795089522
:104C6000121613061406551FF2CF4695F1DF08C041
:104C7000161617061806991FF1CF8695710561055E
:104C800008940895E894BB2766277727CB0197F906
:104C900008950E94D42508F48FEF0895FA01DC01ED
:104CA000AA0FBB1F9B01AC01BF5728F42227332753
:104CB0004427507820C0B75190F4AB2F002446957C
:104CC00037952795011CA395D2F3002071F0220F90
:104CD000331F441FB395DAF30ED00C947D2461305A
:104CE0007105A0E88A07B94630F49B01AC0166273C
:104CF000772788279078309621F02083318342836C
:104D0000538308950E9495260C940F260E94012635
:104D100038F00E94082620F0952311F00C94F82515
:104D20000C94FE2511240C9443260E94202670F337
:104D3000959FC1F3950F50E0551F629FF001729F40
:104D4000BB27F00DB11D639FAA27F00DB11DAA1F4F
:104D5000649F6627B00DA11D661F829F2227B00D9C
:104D6000A11D621F739FB00DA11D621F839FA00D27
:104D7000611D221F749F3327A00D611D231F849F77
:104D8000600D211D822F762F6A2F11249F575040CE
:104D90009AF0F1F088234AF0EE0FFF1FBB1F661F49
:104DA000771F881F91505040A9F79E3F510580F012
:104DB0000C94F8250C9443265F3FE4F3983ED4F31B
:104DC000869577956795B795F795E7959F5FC1F7B6
:104DD000FE2B880F911D9695879597F9089519F4E4
:104DE00016F40C94FE250C9435270E942826B8F35F
:104DF0009923C9F3B6F39F57550B87FF0E944327AA
:104E00000024A0E640EA900180585695979528F432
:104E1000805C660F771F881F20F02617370748072A
:104E200030F4621B730B840B202931294A2BA69581
:104E300017940794202531254A2758F7660F771FC6
:104E4000881F20F026173707480730F4620B730BD2
:104E5000840B200D311D411DA09581F7B901842FD0
:104E60009158880F9695879508959F3F31F09150FE
:104E700020F4879577956795B795880F911D96953E
:104E8000879597F9089591505040660F771F881FB6
:104E9000D2F70895991B79E004C0991F961708F07E
:104EA000961B881F7A95C9F780950895AA1BBB1B8E
:104EB00051E107C0AA1FBB1FA617B70710F0A61B1A
:104EC000B70B881F991F5A95A9F780959095BC013B
:104ED000CD010895EE0FFF1F0590F491E02D099488
:104EE0000F931F93CF93DF938230910510F482E0EC
:104EF00090E0E0910407F091050730E020E0B0E099
:104F0000A0E0309799F42115310509F44AC0281B17
:104F1000390B24303105D8F58A819B8161157105E3
:104F200089F1FB0193838283FE0111C0408151818D
:104F30000281138148175907E0F04817590799F47F
:104F4000109761F012960C93129713961C93329659
:104F5000CF01DF91CF911F910F9108950093040726
:104F600010930507F4CF2115310551F0421753076F
:104F700038F0A901DB019A01BD01DF01F801C1CFC1
:104F8000EF01F9CF9093050780930407CDCFFE0181
:104F9000E20FF31F819391932250310939832883C3
:104FA000D7CF2091020730910307232B41F42091A2
:104FB00080013091810130930307209302072091F3
:104FC0007E0130917F012115310541F42DB73EB7A7
:104FD0004091820150918301241B350BE09102071F
:104FE000F0910307E217F307A0F42E1B3F0B2817DD
:104FF000390778F0AC014E5F5F4F2417350748F052
:105000004E0F5F1F509303074093020781939193C4
:105010009FCFF0E0E0E09CCFCF93DF930097E9F0E3
:10502000FC01329713821282A0910407B091050708
:10503000ED0130E020E01097A1F420813181820F52
:10504000931F20910207309103072817390709F0B1
:1050500061C0F0930307E0930207DF91CF910895B9
:10506000EA01CE17DF07E8F54A815B819E01411511
:105070005105B1F7E901FB83EA8349915991C40FC6
:10508000D51FEC17FD0761F4808191810296840F92
:10509000951FE90199838883828193819B838A8309
:1050A000F0E0E0E012968D919C9113970097B9F58E
:1050B0002D913C911197CD010296820F931F209163
:1050C0000207309103072817390739F6309751F551
:1050D0001092050710920407B0930307A0930207EC
:1050E000BCCFD383C28340815181840F951FC817E1
:1050F000D90761F44E5F5F4F88819981480F591F2E
:10510000518340838A819B8193838283211531055A
:1051100009F0B0CFF0930507E09304079ECFFD019F
:0E512000DC01C0CF13821282D7CFF894FFCFEC
:10512E00FFFFFFFF00E100000000000087143714AE
:10513E002A147D132A13ED12CF12FB117C11581174
:10514E003D11FA1703110A17DE16540B32144A0BCF
:10515E00F314B310DA14AB1497193014A916901077
:10516E004E1046103C100010F00F3D17BB0F3216BC
:10517E00660F080F000FF80E6F0EC615E30D0D0D1E
:10518E00050D500C400C300C180CFA0BDA0BAC0B56
:10519E005F0B480DAA0D790D0E13D00721130000D9
:1051AE000607800002060104050500000A0E1FFF17
:1051BE00FFFFFFFFFFFFFF030200000403000000DC
:1051CE000A0C00000000000000000000000000E5D6
:1051DE0004B104460684063006FE05DD05A90588E1
:1051EE00053205030500C180810000001200130086
:1051FE00140015001600170018001900FF07FF070E
:10520E00FF071D00FF07FF07FF07FF070000000055
:10521E0000000000000000003402E3034C024A02CA
:10522E00920250026E0200000000180BEB0A470BB0
:08523E00C10AE40AD10AC20A08
:00000001FF
